{
  "_format": "hh-sol-artifact-1",
  "contractName": "AccessControl",
  "sourceName": "contracts/payFee.sol",
  "abi": [
    {
      "inputs": [],
      "stateMutability": "nonpayable",
      "type": "constructor"
    },
    {
      "anonymous": false,
      "inputs": [
        {
          "indexed": true,
          "internalType": "address",
          "name": "user",
          "type": "address"
        },
        {
          "indexed": false,
          "internalType": "uint256",
          "name": "amount",
          "type": "uint256"
        }
      ],
      "name": "AccessGranted",
      "type": "event"
    },
    {
      "inputs": [],
      "name": "ACCESS_FEE",
      "outputs": [
        {
          "internalType": "uint256",
          "name": "",
          "type": "uint256"
        }
      ],
      "stateMutability": "view",
      "type": "function"
    },
    {
      "inputs": [
        {
          "internalType": "address",
          "name": "_user",
          "type": "address"
        }
      ],
      "name": "checkAccess",
      "outputs": [
        {
          "internalType": "bool",
          "name": "",
          "type": "bool"
        }
      ],
      "stateMutability": "view",
      "type": "function"
    },
    {
      "inputs": [
        {
          "internalType": "address",
          "name": "",
          "type": "address"
        }
      ],
      "name": "hasAccess",
      "outputs": [
        {
          "internalType": "bool",
          "name": "",
          "type": "bool"
        }
      ],
      "stateMutability": "view",
      "type": "function"
    },
    {
      "inputs": [],
      "name": "owner",
      "outputs": [
        {
          "internalType": "address",
          "name": "",
          "type": "address"
        }
      ],
      "stateMutability": "view",
      "type": "function"
    },
    {
      "inputs": [],
      "name": "payForAccess",
      "outputs": [],
      "stateMutability": "payable",
      "type": "function"
    },
    {
      "inputs": [],
      "name": "withdraw",
      "outputs": [],
      "stateMutability": "nonpayable",
      "type": "function"
    }
  ],
  "bytecode": "0x608060405234801561001057600080fd5b50336000806101000a81548173ffffffffffffffffffffffffffffffffffffffff021916908373ffffffffffffffffffffffffffffffffffffffff160217905550610739806100606000396000f3fe6080604052600436106100555760003560e01c80633ccfd60b1461005a578063466a0146146100715780636ab2ef84146100ae5780638da5cb5b146100d957806395a078e814610104578063da9f11fd14610141575b600080fd5b34801561006657600080fd5b5061006f61014b565b005b34801561007d57600080fd5b50610098600480360381019061009391906104c7565b610242565b6040516100a5919061050f565b60405180910390f35b3480156100ba57600080fd5b506100c3610298565b6040516100d09190610543565b60405180910390f35b3480156100e557600080fd5b506100ee6102a3565b6040516100fb919061056d565b60405180910390f35b34801561011057600080fd5b5061012b600480360381019061012691906104c7565b6102c7565b604051610138919061050f565b60405180910390f35b6101496102e7565b005b60008054906101000a900473ffffffffffffffffffffffffffffffffffffffff1673ffffffffffffffffffffffffffffffffffffffff163373ffffffffffffffffffffffffffffffffffffffff16146101d9576040517f08c379a00000000000000000000000000000000000000000000000000000000081526004016101d0906105e5565b60405180910390fd5b60008054906101000a900473ffffffffffffffffffffffffffffffffffffffff1673ffffffffffffffffffffffffffffffffffffffff166108fc479081150290604051600060405180830381858888f1935050505015801561023f573d6000803e3d6000fd5b50565b6000600160008373ffffffffffffffffffffffffffffffffffffffff1673ffffffffffffffffffffffffffffffffffffffff16815260200190815260200160002060009054906101000a900460ff169050919050565b662386f26fc1000081565b60008054906101000a900473ffffffffffffffffffffffffffffffffffffffff1681565b60016020528060005260406000206000915054906101000a900460ff1681565b662386f26fc100003414610330576040517f08c379a000000000000000000000000000000000000000000000000000000000815260040161032790610677565b60405180910390fd5b600160003373ffffffffffffffffffffffffffffffffffffffff1673ffffffffffffffffffffffffffffffffffffffff16815260200190815260200160002060009054906101000a900460ff16156103bd576040517f08c379a00000000000000000000000000000000000000000000000000000000081526004016103b4906106e3565b60405180910390fd5b60018060003373ffffffffffffffffffffffffffffffffffffffff1673ffffffffffffffffffffffffffffffffffffffff16815260200190815260200160002060006101000a81548160ff0219169083151502179055503373ffffffffffffffffffffffffffffffffffffffff167fb4c6779ceb4a20f448e76a0e11f39bd183cff9c9dbac53df6bfcc202e2eb32f13460405161045a9190610543565b60405180910390a2565b600080fd5b600073ffffffffffffffffffffffffffffffffffffffff82169050919050565b600061049482610469565b9050919050565b6104a481610489565b81146104af57600080fd5b50565b6000813590506104c18161049b565b92915050565b6000602082840312156104dd576104dc610464565b5b60006104eb848285016104b2565b91505092915050565b60008115159050919050565b610509816104f4565b82525050565b60006020820190506105246000830184610500565b92915050565b6000819050919050565b61053d8161052a565b82525050565b60006020820190506105586000830184610534565b92915050565b61056781610489565b82525050565b6000602082019050610582600083018461055e565b92915050565b600082825260208201905092915050565b7f4f6e6c7920746865206f776e65722063616e206578656375746520746869732e600082015250565b60006105cf602083610588565b91506105da82610599565b602082019050919050565b600060208201905081810360008301526105fe816105c2565b9050919050565b7f496e636f7272656374207061796d656e742e20302e303120455448207265717560008201527f697265642e000000000000000000000000000000000000000000000000000000602082015250565b6000610661602583610588565b915061066c82610605565b604082019050919050565b6000602082019050818103600083015261069081610654565b9050919050565b7f596f7520616c72656164792068617665206163636573732e0000000000000000600082015250565b60006106cd601883610588565b91506106d882610697565b602082019050919050565b600060208201905081810360008301526106fc816106c0565b905091905056fea26469706673582212207425ceba96f48e08897d3b441a72b43e8aa5e2cfd1c0e3a2584b6e6ef383e46d64736f6c63430008180033",
  "linkReferences": {},
  "deployedLinkReferences": {}
}