{
  "_format": "hh-sol-artifact-1",
  "contractName": "SongStorage",
  "sourceName": "contracts/SongStorage.sol",
  "abi": [
    {
      "anonymous": false,
      "inputs": [
        {
          "indexed": false,
          "internalType": "uint256",
          "name": "songId",
          "type": "uint256"
        },
        {
          "indexed": false,
          "internalType": "string",
          "name": "ipfsHash",
          "type": "string"
        },
        {
          "indexed": false,
          "internalType": "string",
          "name": "title",
          "type": "string"
        },
        {
          "indexed": false,
          "internalType": "address",
          "name": "uploader",
          "type": "address"
        }
      ],
      "name": "SongUploaded",
      "type": "event"
    },
    {
      "inputs": [
        {
          "internalType": "uint256",
          "name": "_songId",
          "type": "uint256"
        }
      ],
      "name": "getSong",
      "outputs": [
        {
          "internalType": "string",
          "name": "",
          "type": "string"
        },
        {
          "internalType": "string",
          "name": "",
          "type": "string"
        },
        {
          "internalType": "address",
          "name": "",
          "type": "address"
        }
      ],
      "stateMutability": "view",
      "type": "function"
    },
    {
      "inputs": [],
      "name": "songCounter",
      "outputs": [
        {
          "internalType": "uint256",
          "name": "",
          "type": "uint256"
        }
      ],
      "stateMutability": "view",
      "type": "function"
    },
    {
      "inputs": [
        {
          "internalType": "uint256",
          "name": "",
          "type": "uint256"
        }
      ],
      "name": "songs",
      "outputs": [
        {
          "internalType": "string",
          "name": "ipfsHash",
          "type": "string"
        },
        {
          "internalType": "string",
          "name": "title",
          "type": "string"
        },
        {
          "internalType": "address",
          "name": "uploader",
          "type": "address"
        }
      ],
      "stateMutability": "view",
      "type": "function"
    },
    {
      "inputs": [
        {
          "internalType": "string",
          "name": "_ipfsHash",
          "type": "string"
        },
        {
          "internalType": "string",
          "name": "_title",
          "type": "string"
        }
      ],
      "name": "uploadSong",
      "outputs": [],
      "stateMutability": "nonpayable",
      "type": "function"
    }
  ],
  "bytecode": "0x608060405234801561001057600080fd5b50610d20806100206000396000f3fe608060405234801561001057600080fd5b506004361061004c5760003560e01c8063304cff301461005157806342acaa6614610083578063493e51ef146100b55780634bd4d59e146100d1575b600080fd5b61006b600480360381019061006691906105bc565b6100ef565b60405161007a939291906106ba565b60405180910390f35b61009d600480360381019061009891906105bc565b610249565b6040516100ac939291906106ba565b60405180910390f35b6100cf60048036038101906100ca9190610834565b610456565b005b6100d961056c565b6040516100e691906108bb565b60405180910390f35b600060205280600052604060002060009150905080600001805461011290610905565b80601f016020809104026020016040519081016040528092919081815260200182805461013e90610905565b801561018b5780601f106101605761010080835404028352916020019161018b565b820191906000526020600020905b81548152906001019060200180831161016e57829003601f168201915b5050505050908060010180546101a090610905565b80601f01602080910402602001604051908101604052809291908181526020018280546101cc90610905565b80156102195780601f106101ee57610100808354040283529160200191610219565b820191906000526020600020905b8154815290600101906020018083116101fc57829003601f168201915b5050505050908060020160009054906101000a900473ffffffffffffffffffffffffffffffffffffffff16905083565b6060806000808411801561025f57506001548411155b61029e576040517f08c379a000000000000000000000000000000000000000000000000000000000815260040161029590610982565b60405180910390fd5b60008060008681526020019081526020016000206040518060600160405290816000820180546102cd90610905565b80601f01602080910402602001604051908101604052809291908181526020018280546102f990610905565b80156103465780601f1061031b57610100808354040283529160200191610346565b820191906000526020600020905b81548152906001019060200180831161032957829003601f168201915b5050505050815260200160018201805461035f90610905565b80601f016020809104026020016040519081016040528092919081815260200182805461038b90610905565b80156103d85780601f106103ad576101008083540402835291602001916103d8565b820191906000526020600020905b8154815290600101906020018083116103bb57829003601f168201915b505050505081526020016002820160009054906101000a900473ffffffffffffffffffffffffffffffffffffffff1673ffffffffffffffffffffffffffffffffffffffff1673ffffffffffffffffffffffffffffffffffffffff16815250509050806000015181602001518260400151935093509350509193909250565b60016000815480929190610469906109d1565b919050555060405180606001604052808381526020018281526020013373ffffffffffffffffffffffffffffffffffffffff16815250600080600154815260200190815260200160002060008201518160000190816104c89190610bc5565b5060208201518160010190816104de9190610bc5565b5060408201518160020160006101000a81548173ffffffffffffffffffffffffffffffffffffffff021916908373ffffffffffffffffffffffffffffffffffffffff1602179055509050507fc97da9551a9ccb2be1c73f3961f1c32602058096a8f6f65e9d0e74999e2f3b876001548383336040516105609493929190610c97565b60405180910390a15050565b60015481565b6000604051905090565b600080fd5b600080fd5b6000819050919050565b61059981610586565b81146105a457600080fd5b50565b6000813590506105b681610590565b92915050565b6000602082840312156105d2576105d161057c565b5b60006105e0848285016105a7565b91505092915050565b600081519050919050565b600082825260208201905092915050565b60005b83811015610623578082015181840152602081019050610608565b60008484015250505050565b6000601f19601f8301169050919050565b600061064b826105e9565b61065581856105f4565b9350610665818560208601610605565b61066e8161062f565b840191505092915050565b600073ffffffffffffffffffffffffffffffffffffffff82169050919050565b60006106a482610679565b9050919050565b6106b481610699565b82525050565b600060608201905081810360008301526106d48186610640565b905081810360208301526106e88185610640565b90506106f760408301846106ab565b949350505050565b600080fd5b600080fd5b7f4e487b7100000000000000000000000000000000000000000000000000000000600052604160045260246000fd5b6107418261062f565b810181811067ffffffffffffffff821117156107605761075f610709565b5b80604052505050565b6000610773610572565b905061077f8282610738565b919050565b600067ffffffffffffffff82111561079f5761079e610709565b5b6107a88261062f565b9050602081019050919050565b82818337600083830152505050565b60006107d76107d284610784565b610769565b9050828152602081018484840111156107f3576107f2610704565b5b6107fe8482856107b5565b509392505050565b600082601f83011261081b5761081a6106ff565b5b813561082b8482602086016107c4565b91505092915050565b6000806040838503121561084b5761084a61057c565b5b600083013567ffffffffffffffff81111561086957610868610581565b5b61087585828601610806565b925050602083013567ffffffffffffffff81111561089657610895610581565b5b6108a285828601610806565b9150509250929050565b6108b581610586565b82525050565b60006020820190506108d060008301846108ac565b92915050565b7f4e487b7100000000000000000000000000000000000000000000000000000000600052602260045260246000fd5b6000600282049050600182168061091d57607f821691505b6020821081036109305761092f6108d6565b5b50919050565b7f496e76616c696420736f6e672049440000000000000000000000000000000000600082015250565b600061096c600f836105f4565b915061097782610936565b602082019050919050565b6000602082019050818103600083015261099b8161095f565b9050919050565b7f4e487b7100000000000000000000000000000000000000000000000000000000600052601160045260246000fd5b60006109dc82610586565b91507fffffffffffffffffffffffffffffffffffffffffffffffffffffffffffffffff8203610a0e57610a0d6109a2565b5b600182019050919050565b60008190508160005260206000209050919050565b60006020601f8301049050919050565b600082821b905092915050565b600060088302610a7b7fffffffffffffffffffffffffffffffffffffffffffffffffffffffffffffffff82610a3e565b610a858683610a3e565b95508019841693508086168417925050509392505050565b6000819050919050565b6000610ac2610abd610ab884610586565b610a9d565b610586565b9050919050565b6000819050919050565b610adc83610aa7565b610af0610ae882610ac9565b848454610a4b565b825550505050565b600090565b610b05610af8565b610b10818484610ad3565b505050565b5b81811015610b3457610b29600082610afd565b600181019050610b16565b5050565b601f821115610b7957610b4a81610a19565b610b5384610a2e565b81016020851015610b62578190505b610b76610b6e85610a2e565b830182610b15565b50505b505050565b600082821c905092915050565b6000610b9c60001984600802610b7e565b1980831691505092915050565b6000610bb58383610b8b565b9150826002028217905092915050565b610bce826105e9565b67ffffffffffffffff811115610be757610be6610709565b5b610bf18254610905565b610bfc828285610b38565b600060209050601f831160018114610c2f5760008415610c1d578287015190505b610c278582610ba9565b865550610c8f565b601f198416610c3d86610a19565b60005b82811015610c6557848901518255600182019150602085019450602081019050610c40565b86831015610c825784890151610c7e601f891682610b8b565b8355505b6001600288020188555050505b505050505050565b6000608082019050610cac60008301876108ac565b8181036020830152610cbe8186610640565b90508181036040830152610cd28185610640565b9050610ce160608301846106ab565b9594505050505056fea26469706673582212208afe87e8aaf1526fe62d1e90b6de06eac30fa7aff44eadaf6b5f6110e9cf603e64736f6c63430008180033",
  "linkReferences": {},
  "deployedLinkReferences": {}
}