{
  "_format": "hh-sol-artifact-1",
  "contractName": "AccessControl",
  "sourceName": "contracts/payFee.sol",
  "abi": [
    {
      "inputs": [],
      "stateMutability": "nonpayable",
      "type": "constructor"
    },
    {
      "anonymous": false,
      "inputs": [
        {
          "indexed": false,
          "internalType": "address",
          "name": "user",
          "type": "address"
        },
        {
          "indexed": false,
          "internalType": "bool",
          "name": "hasAccess",
          "type": "bool"
        }
      ],
      "name": "AccessChecked",
      "type": "event"
    },
    {
      "anonymous": false,
      "inputs": [
        {
          "indexed": true,
          "internalType": "address",
          "name": "user",
          "type": "address"
        },
        {
          "indexed": false,
          "internalType": "uint256",
          "name": "amount",
          "type": "uint256"
        }
      ],
      "name": "AccessGranted",
      "type": "event"
    },
    {
      "inputs": [],
      "name": "ACCESS_FEE",
      "outputs": [
        {
          "internalType": "uint256",
          "name": "",
          "type": "uint256"
        }
      ],
      "stateMutability": "view",
      "type": "function"
    },
    {
      "inputs": [
        {
          "internalType": "address",
          "name": "_user",
          "type": "address"
        }
      ],
      "name": "checkAccess",
      "outputs": [
        {
          "internalType": "bool",
          "name": "",
          "type": "bool"
        }
      ],
      "stateMutability": "view",
      "type": "function"
    },
    {
      "inputs": [
        {
          "internalType": "address",
          "name": "_user",
          "type": "address"
        }
      ],
      "name": "emitAccessCheck",
      "outputs": [],
      "stateMutability": "nonpayable",
      "type": "function"
    },
    {
      "inputs": [
        {
          "internalType": "address",
          "name": "",
          "type": "address"
        }
      ],
      "name": "hasAccess",
      "outputs": [
        {
          "internalType": "bool",
          "name": "",
          "type": "bool"
        }
      ],
      "stateMutability": "view",
      "type": "function"
    },
    {
      "inputs": [],
      "name": "owner",
      "outputs": [
        {
          "internalType": "address",
          "name": "",
          "type": "address"
        }
      ],
      "stateMutability": "view",
      "type": "function"
    },
    {
      "inputs": [],
      "name": "payForAccess",
      "outputs": [],
      "stateMutability": "payable",
      "type": "function"
    },
    {
      "inputs": [],
      "name": "withdraw",
      "outputs": [],
      "stateMutability": "nonpayable",
      "type": "function"
    }
  ],
  "bytecode": "0x608060405234801561001057600080fd5b50336000806101000a81548173ffffffffffffffffffffffffffffffffffffffff021916908373ffffffffffffffffffffffffffffffffffffffff160217905550610834806100606000396000f3fe6080604052600436106100705760003560e01c80637f7d9fb01161004e5780637f7d9fb0146100f45780638da5cb5b1461011d57806395a078e814610148578063da9f11fd1461018557610070565b80633ccfd60b14610075578063466a01461461008c5780636ab2ef84146100c9575b600080fd5b34801561008157600080fd5b5061008a61018f565b005b34801561009857600080fd5b506100b360048036038101906100ae9190610599565b610286565b6040516100c091906105e1565b60405180910390f35b3480156100d557600080fd5b506100de6102dc565b6040516100eb9190610615565b60405180910390f35b34801561010057600080fd5b5061011b60048036038101906101169190610599565b6102e7565b005b34801561012957600080fd5b50610132610375565b60405161013f919061063f565b60405180910390f35b34801561015457600080fd5b5061016f600480360381019061016a9190610599565b610399565b60405161017c91906105e1565b60405180910390f35b61018d6103b9565b005b60008054906101000a900473ffffffffffffffffffffffffffffffffffffffff1673ffffffffffffffffffffffffffffffffffffffff163373ffffffffffffffffffffffffffffffffffffffff161461021d576040517f08c379a0000000000000000000000000000000000000000000000000000000008152600401610214906106b7565b60405180910390fd5b60008054906101000a900473ffffffffffffffffffffffffffffffffffffffff1673ffffffffffffffffffffffffffffffffffffffff166108fc479081150290604051600060405180830381858888f19350505050158015610283573d6000803e3d6000fd5b50565b6000600160008373ffffffffffffffffffffffffffffffffffffffff1673ffffffffffffffffffffffffffffffffffffffff16815260200190815260200160002060009054906101000a900460ff169050919050565b662386f26fc1000081565b6000600160008373ffffffffffffffffffffffffffffffffffffffff1673ffffffffffffffffffffffffffffffffffffffff16815260200190815260200160002060009054906101000a900460ff1690507fb5e4cd54585c47268f4ffad5dcfa1f9188442aabfd9b6c6cccb9558f6b7ca83d82826040516103699291906106d7565b60405180910390a15050565b60008054906101000a900473ffffffffffffffffffffffffffffffffffffffff1681565b60016020528060005260406000206000915054906101000a900460ff1681565b662386f26fc100003414610402576040517f08c379a00000000000000000000000000000000000000000000000000000000081526004016103f990610772565b60405180910390fd5b600160003373ffffffffffffffffffffffffffffffffffffffff1673ffffffffffffffffffffffffffffffffffffffff16815260200190815260200160002060009054906101000a900460ff161561048f576040517f08c379a0000000000000000000000000000000000000000000000000000000008152600401610486906107de565b60405180910390fd5b60018060003373ffffffffffffffffffffffffffffffffffffffff1673ffffffffffffffffffffffffffffffffffffffff16815260200190815260200160002060006101000a81548160ff0219169083151502179055503373ffffffffffffffffffffffffffffffffffffffff167fb4c6779ceb4a20f448e76a0e11f39bd183cff9c9dbac53df6bfcc202e2eb32f13460405161052c9190610615565b60405180910390a2565b600080fd5b600073ffffffffffffffffffffffffffffffffffffffff82169050919050565b60006105668261053b565b9050919050565b6105768161055b565b811461058157600080fd5b50565b6000813590506105938161056d565b92915050565b6000602082840312156105af576105ae610536565b5b60006105bd84828501610584565b91505092915050565b60008115159050919050565b6105db816105c6565b82525050565b60006020820190506105f660008301846105d2565b92915050565b6000819050919050565b61060f816105fc565b82525050565b600060208201905061062a6000830184610606565b92915050565b6106398161055b565b82525050565b60006020820190506106546000830184610630565b92915050565b600082825260208201905092915050565b7f4f6e6c7920746865206f776e65722063616e206578656375746520746869732e600082015250565b60006106a160208361065a565b91506106ac8261066b565b602082019050919050565b600060208201905081810360008301526106d081610694565b9050919050565b60006040820190506106ec6000830185610630565b6106f960208301846105d2565b9392505050565b7f496e636f7272656374207061796d656e742e20302e303120455448207265717560008201527f697265642e000000000000000000000000000000000000000000000000000000602082015250565b600061075c60258361065a565b915061076782610700565b604082019050919050565b6000602082019050818103600083015261078b8161074f565b9050919050565b7f596f7520616c72656164792068617665206163636573732e0000000000000000600082015250565b60006107c860188361065a565b91506107d382610792565b602082019050919050565b600060208201905081810360008301526107f7816107bb565b905091905056fea26469706673582212206a7a39de4b6344d792bf2e5170517ca78619c4621f7dba15e96d04f49ae48ba164736f6c63430008180033",
  "linkReferences": {},
  "deployedLinkReferences": {}
}