{
  "_format": "hh-sol-artifact-1",
  "contractName": "SongStorage",
  "sourceName": "contracts/SongStorage.sol",
  "abi": [
    {
      "anonymous": false,
      "inputs": [
        {
          "indexed": false,
          "internalType": "uint256",
          "name": "songId",
          "type": "uint256"
        },
        {
          "indexed": false,
          "internalType": "address",
          "name": "user",
          "type": "address"
        }
      ],
      "name": "SongPlayed",
      "type": "event"
    },
    {
      "anonymous": false,
      "inputs": [
        {
          "indexed": false,
          "internalType": "uint256",
          "name": "songId",
          "type": "uint256"
        },
        {
          "indexed": false,
          "internalType": "string",
          "name": "ipfsHash",
          "type": "string"
        },
        {
          "indexed": false,
          "internalType": "string",
          "name": "title",
          "type": "string"
        },
        {
          "indexed": false,
          "internalType": "address",
          "name": "uploader",
          "type": "address"
        }
      ],
      "name": "SongUploaded",
      "type": "event"
    },
    {
      "inputs": [],
      "name": "REWARD_PER_PLAY",
      "outputs": [
        {
          "internalType": "uint256",
          "name": "",
          "type": "uint256"
        }
      ],
      "stateMutability": "view",
      "type": "function"
    },
    {
      "inputs": [],
      "name": "fundContract",
      "outputs": [],
      "stateMutability": "payable",
      "type": "function"
    },
    {
      "inputs": [
        {
          "internalType": "uint256",
          "name": "_songId",
          "type": "uint256"
        }
      ],
      "name": "getSong",
      "outputs": [
        {
          "internalType": "string",
          "name": "",
          "type": "string"
        },
        {
          "internalType": "string",
          "name": "",
          "type": "string"
        },
        {
          "internalType": "address",
          "name": "",
          "type": "address"
        },
        {
          "internalType": "uint256",
          "name": "",
          "type": "uint256"
        }
      ],
      "stateMutability": "view",
      "type": "function"
    },
    {
      "inputs": [
        {
          "internalType": "uint256",
          "name": "_songId",
          "type": "uint256"
        }
      ],
      "name": "playSong",
      "outputs": [],
      "stateMutability": "payable",
      "type": "function"
    },
    {
      "inputs": [],
      "name": "songCounter",
      "outputs": [
        {
          "internalType": "uint256",
          "name": "",
          "type": "uint256"
        }
      ],
      "stateMutability": "view",
      "type": "function"
    },
    {
      "inputs": [
        {
          "internalType": "uint256",
          "name": "",
          "type": "uint256"
        }
      ],
      "name": "songPlays",
      "outputs": [
        {
          "internalType": "uint256",
          "name": "",
          "type": "uint256"
        }
      ],
      "stateMutability": "view",
      "type": "function"
    },
    {
      "inputs": [
        {
          "internalType": "uint256",
          "name": "",
          "type": "uint256"
        }
      ],
      "name": "songs",
      "outputs": [
        {
          "internalType": "string",
          "name": "ipfsHash",
          "type": "string"
        },
        {
          "internalType": "string",
          "name": "title",
          "type": "string"
        },
        {
          "internalType": "address",
          "name": "uploader",
          "type": "address"
        },
        {
          "internalType": "uint256",
          "name": "playCount",
          "type": "uint256"
        }
      ],
      "stateMutability": "view",
      "type": "function"
    },
    {
      "inputs": [
        {
          "internalType": "string",
          "name": "_ipfsHash",
          "type": "string"
        },
        {
          "internalType": "string",
          "name": "_title",
          "type": "string"
        }
      ],
      "name": "uploadSong",
      "outputs": [],
      "stateMutability": "nonpayable",
      "type": "function"
    },
    {
      "stateMutability": "payable",
      "type": "receive"
    }
  ],
  "bytecode": "0x608060405234801561001057600080fd5b50610fe5806100206000396000f3fe60806040526004361061007f5760003560e01c80634bd4d59e1161004e5780634bd4d59e1461015f578063759950e61461018a578063769eaccf146101a6578063bd097e21146101e357610086565b806324966ce81461008b578063304cff30146100b657806342acaa66146100f6578063493e51ef1461013657610086565b3661008657005b600080fd5b34801561009757600080fd5b506100a06101ed565b6040516100ad9190610819565b60405180910390f35b3480156100c257600080fd5b506100dd60048036038101906100d89190610874565b6101f8565b6040516100ed9493929190610972565b60405180910390f35b34801561010257600080fd5b5061011d60048036038101906101189190610874565b610358565b60405161012d9493929190610972565b60405180910390f35b34801561014257600080fd5b5061015d60048036038101906101589190610afa565b610578565b005b34801561016b57600080fd5b5061017461069f565b6040516101819190610819565b60405180910390f35b6101a4600480360381019061019f9190610874565b6106a5565b005b3480156101b257600080fd5b506101cd60048036038101906101c89190610874565b6107e6565b6040516101da9190610819565b60405180910390f35b6101eb6107fe565b005b66038d7ea4c6800081565b600060205280600052604060002060009150905080600001805461021b90610ba1565b80601f016020809104026020016040519081016040528092919081815260200182805461024790610ba1565b80156102945780601f1061026957610100808354040283529160200191610294565b820191906000526020600020905b81548152906001019060200180831161027757829003601f168201915b5050505050908060010180546102a990610ba1565b80601f01602080910402602001604051908101604052809291908181526020018280546102d590610ba1565b80156103225780601f106102f757610100808354040283529160200191610322565b820191906000526020600020905b81548152906001019060200180831161030557829003601f168201915b5050505050908060020160009054906101000a900473ffffffffffffffffffffffffffffffffffffffff16908060030154905084565b60608060008060008511801561037057506002548511155b6103af576040517f08c379a00000000000000000000000000000000000000000000000000000000081526004016103a690610c1e565b60405180910390fd5b60008060008781526020019081526020016000206040518060800160405290816000820180546103de90610ba1565b80601f016020809104026020016040519081016040528092919081815260200182805461040a90610ba1565b80156104575780601f1061042c57610100808354040283529160200191610457565b820191906000526020600020905b81548152906001019060200180831161043a57829003601f168201915b5050505050815260200160018201805461047090610ba1565b80601f016020809104026020016040519081016040528092919081815260200182805461049c90610ba1565b80156104e95780601f106104be576101008083540402835291602001916104e9565b820191906000526020600020905b8154815290600101906020018083116104cc57829003601f168201915b505050505081526020016002820160009054906101000a900473ffffffffffffffffffffffffffffffffffffffff1673ffffffffffffffffffffffffffffffffffffffff1673ffffffffffffffffffffffffffffffffffffffff168152602001600382015481525050905080600001518160200151826040015183606001519450945094509450509193509193565b6002600081548092919061058b90610c6d565b919050555060405180608001604052808381526020018281526020013373ffffffffffffffffffffffffffffffffffffffff1681526020016000815250600080600254815260200190815260200160002060008201518160000190816105f19190610e61565b5060208201518160010190816106079190610e61565b5060408201518160020160006101000a81548173ffffffffffffffffffffffffffffffffffffffff021916908373ffffffffffffffffffffffffffffffffffffffff160217905550606082015181600301559050507fc97da9551a9ccb2be1c73f3961f1c32602058096a8f6f65e9d0e74999e2f3b876002548383336040516106939493929190610f33565b60405180910390a15050565b60025481565b6000811180156106b757506002548111155b6106f6576040517f08c379a00000000000000000000000000000000000000000000000000000000081526004016106ed90610c1e565b60405180910390fd5b600080828152602001908152602001600020600301600081548092919061071c90610c6d565b91905055507f14d20cdaac8c1378b16343b5737af9f95d2d045b50f3042cd19f26235f9c6bf98133604051610752929190610f86565b60405180910390a1600080600083815260200190815260200160002060020160009054906101000a900473ffffffffffffffffffffffffffffffffffffffff1690508073ffffffffffffffffffffffffffffffffffffffff166108fc66038d7ea4c680009081150290604051600060405180830381858888f193505050501580156107e1573d6000803e3d6000fd5b505050565b60016020528060005260406000206000915090505481565b565b6000819050919050565b61081381610800565b82525050565b600060208201905061082e600083018461080a565b92915050565b6000604051905090565b600080fd5b600080fd5b61085181610800565b811461085c57600080fd5b50565b60008135905061086e81610848565b92915050565b60006020828403121561088a5761088961083e565b5b60006108988482850161085f565b91505092915050565b600081519050919050565b600082825260208201905092915050565b60005b838110156108db5780820151818401526020810190506108c0565b60008484015250505050565b6000601f19601f8301169050919050565b6000610903826108a1565b61090d81856108ac565b935061091d8185602086016108bd565b610926816108e7565b840191505092915050565b600073ffffffffffffffffffffffffffffffffffffffff82169050919050565b600061095c82610931565b9050919050565b61096c81610951565b82525050565b6000608082019050818103600083015261098c81876108f8565b905081810360208301526109a081866108f8565b90506109af6040830185610963565b6109bc606083018461080a565b95945050505050565b600080fd5b600080fd5b7f4e487b7100000000000000000000000000000000000000000000000000000000600052604160045260246000fd5b610a07826108e7565b810181811067ffffffffffffffff82111715610a2657610a256109cf565b5b80604052505050565b6000610a39610834565b9050610a4582826109fe565b919050565b600067ffffffffffffffff821115610a6557610a646109cf565b5b610a6e826108e7565b9050602081019050919050565b82818337600083830152505050565b6000610a9d610a9884610a4a565b610a2f565b905082815260208101848484011115610ab957610ab86109ca565b5b610ac4848285610a7b565b509392505050565b600082601f830112610ae157610ae06109c5565b5b8135610af1848260208601610a8a565b91505092915050565b60008060408385031215610b1157610b1061083e565b5b600083013567ffffffffffffffff811115610b2f57610b2e610843565b5b610b3b85828601610acc565b925050602083013567ffffffffffffffff811115610b5c57610b5b610843565b5b610b6885828601610acc565b9150509250929050565b7f4e487b7100000000000000000000000000000000000000000000000000000000600052602260045260246000fd5b60006002820490506001821680610bb957607f821691505b602082108103610bcc57610bcb610b72565b5b50919050565b7f496e76616c696420736f6e672049440000000000000000000000000000000000600082015250565b6000610c08600f836108ac565b9150610c1382610bd2565b602082019050919050565b60006020820190508181036000830152610c3781610bfb565b9050919050565b7f4e487b7100000000000000000000000000000000000000000000000000000000600052601160045260246000fd5b6000610c7882610800565b91507fffffffffffffffffffffffffffffffffffffffffffffffffffffffffffffffff8203610caa57610ca9610c3e565b5b600182019050919050565b60008190508160005260206000209050919050565b60006020601f8301049050919050565b600082821b905092915050565b600060088302610d177fffffffffffffffffffffffffffffffffffffffffffffffffffffffffffffffff82610cda565b610d218683610cda565b95508019841693508086168417925050509392505050565b6000819050919050565b6000610d5e610d59610d5484610800565b610d39565b610800565b9050919050565b6000819050919050565b610d7883610d43565b610d8c610d8482610d65565b848454610ce7565b825550505050565b600090565b610da1610d94565b610dac818484610d6f565b505050565b5b81811015610dd057610dc5600082610d99565b600181019050610db2565b5050565b601f821115610e1557610de681610cb5565b610def84610cca565b81016020851015610dfe578190505b610e12610e0a85610cca565b830182610db1565b50505b505050565b600082821c905092915050565b6000610e3860001984600802610e1a565b1980831691505092915050565b6000610e518383610e27565b9150826002028217905092915050565b610e6a826108a1565b67ffffffffffffffff811115610e8357610e826109cf565b5b610e8d8254610ba1565b610e98828285610dd4565b600060209050601f831160018114610ecb5760008415610eb9578287015190505b610ec38582610e45565b865550610f2b565b601f198416610ed986610cb5565b60005b82811015610f0157848901518255600182019150602085019450602081019050610edc565b86831015610f1e5784890151610f1a601f891682610e27565b8355505b6001600288020188555050505b505050505050565b6000608082019050610f48600083018761080a565b8181036020830152610f5a81866108f8565b90508181036040830152610f6e81856108f8565b9050610f7d6060830184610963565b95945050505050565b6000604082019050610f9b600083018561080a565b610fa86020830184610963565b939250505056fea2646970667358221220049262163d529449760864e995ed7abff4c00ef821aab8d113087742eab0921164736f6c63430008180033",
  "linkReferences": {},
  "deployedLinkReferences": {}
}