{
  "_format": "hh-sol-artifact-1",
  "contractName": "SongStorage",
  "sourceName": "contracts/SongStorage.sol",
  "abi": [
    {
      "inputs": [],
      "stateMutability": "nonpayable",
      "type": "constructor"
    },
    {
      "inputs": [
        {
          "internalType": "address",
          "name": "sender",
          "type": "address"
        },
        {
          "internalType": "uint256",
          "name": "tokenId",
          "type": "uint256"
        },
        {
          "internalType": "address",
          "name": "owner",
          "type": "address"
        }
      ],
      "name": "ERC721IncorrectOwner",
      "type": "error"
    },
    {
      "inputs": [
        {
          "internalType": "address",
          "name": "operator",
          "type": "address"
        },
        {
          "internalType": "uint256",
          "name": "tokenId",
          "type": "uint256"
        }
      ],
      "name": "ERC721InsufficientApproval",
      "type": "error"
    },
    {
      "inputs": [
        {
          "internalType": "address",
          "name": "approver",
          "type": "address"
        }
      ],
      "name": "ERC721InvalidApprover",
      "type": "error"
    },
    {
      "inputs": [
        {
          "internalType": "address",
          "name": "operator",
          "type": "address"
        }
      ],
      "name": "ERC721InvalidOperator",
      "type": "error"
    },
    {
      "inputs": [
        {
          "internalType": "address",
          "name": "owner",
          "type": "address"
        }
      ],
      "name": "ERC721InvalidOwner",
      "type": "error"
    },
    {
      "inputs": [
        {
          "internalType": "address",
          "name": "receiver",
          "type": "address"
        }
      ],
      "name": "ERC721InvalidReceiver",
      "type": "error"
    },
    {
      "inputs": [
        {
          "internalType": "address",
          "name": "sender",
          "type": "address"
        }
      ],
      "name": "ERC721InvalidSender",
      "type": "error"
    },
    {
      "inputs": [
        {
          "internalType": "uint256",
          "name": "tokenId",
          "type": "uint256"
        }
      ],
      "name": "ERC721NonexistentToken",
      "type": "error"
    },
    {
      "anonymous": false,
      "inputs": [
        {
          "indexed": true,
          "internalType": "address",
          "name": "owner",
          "type": "address"
        },
        {
          "indexed": true,
          "internalType": "address",
          "name": "approved",
          "type": "address"
        },
        {
          "indexed": true,
          "internalType": "uint256",
          "name": "tokenId",
          "type": "uint256"
        }
      ],
      "name": "Approval",
      "type": "event"
    },
    {
      "anonymous": false,
      "inputs": [
        {
          "indexed": true,
          "internalType": "address",
          "name": "owner",
          "type": "address"
        },
        {
          "indexed": true,
          "internalType": "address",
          "name": "operator",
          "type": "address"
        },
        {
          "indexed": false,
          "internalType": "bool",
          "name": "approved",
          "type": "bool"
        }
      ],
      "name": "ApprovalForAll",
      "type": "event"
    },
    {
      "anonymous": false,
      "inputs": [
        {
          "indexed": false,
          "internalType": "uint256",
          "name": "tokenId",
          "type": "uint256"
        },
        {
          "indexed": false,
          "internalType": "string",
          "name": "ipfsHash",
          "type": "string"
        },
        {
          "indexed": false,
          "internalType": "string",
          "name": "title",
          "type": "string"
        },
        {
          "indexed": false,
          "internalType": "address",
          "name": "uploader",
          "type": "address"
        }
      ],
      "name": "SongTokenized",
      "type": "event"
    },
    {
      "anonymous": false,
      "inputs": [
        {
          "indexed": true,
          "internalType": "address",
          "name": "from",
          "type": "address"
        },
        {
          "indexed": true,
          "internalType": "address",
          "name": "to",
          "type": "address"
        },
        {
          "indexed": true,
          "internalType": "uint256",
          "name": "tokenId",
          "type": "uint256"
        }
      ],
      "name": "Transfer",
      "type": "event"
    },
    {
      "inputs": [
        {
          "internalType": "address",
          "name": "to",
          "type": "address"
        },
        {
          "internalType": "uint256",
          "name": "tokenId",
          "type": "uint256"
        }
      ],
      "name": "approve",
      "outputs": [],
      "stateMutability": "nonpayable",
      "type": "function"
    },
    {
      "inputs": [
        {
          "internalType": "address",
          "name": "owner",
          "type": "address"
        }
      ],
      "name": "balanceOf",
      "outputs": [
        {
          "internalType": "uint256",
          "name": "",
          "type": "uint256"
        }
      ],
      "stateMutability": "view",
      "type": "function"
    },
    {
      "inputs": [],
      "name": "currentCounter",
      "outputs": [
        {
          "internalType": "uint256",
          "name": "",
          "type": "uint256"
        }
      ],
      "stateMutability": "view",
      "type": "function"
    },
    {
      "inputs": [
        {
          "internalType": "uint256",
          "name": "tokenId",
          "type": "uint256"
        }
      ],
      "name": "getApproved",
      "outputs": [
        {
          "internalType": "address",
          "name": "",
          "type": "address"
        }
      ],
      "stateMutability": "view",
      "type": "function"
    },
    {
      "inputs": [
        {
          "internalType": "uint256",
          "name": "_tokenId",
          "type": "uint256"
        }
      ],
      "name": "getSong",
      "outputs": [
        {
          "internalType": "string",
          "name": "",
          "type": "string"
        },
        {
          "internalType": "string",
          "name": "",
          "type": "string"
        },
        {
          "internalType": "address",
          "name": "",
          "type": "address"
        }
      ],
      "stateMutability": "view",
      "type": "function"
    },
    {
      "inputs": [
        {
          "internalType": "address",
          "name": "owner",
          "type": "address"
        },
        {
          "internalType": "address",
          "name": "operator",
          "type": "address"
        }
      ],
      "name": "isApprovedForAll",
      "outputs": [
        {
          "internalType": "bool",
          "name": "",
          "type": "bool"
        }
      ],
      "stateMutability": "view",
      "type": "function"
    },
    {
      "inputs": [],
      "name": "name",
      "outputs": [
        {
          "internalType": "string",
          "name": "",
          "type": "string"
        }
      ],
      "stateMutability": "view",
      "type": "function"
    },
    {
      "inputs": [
        {
          "internalType": "uint256",
          "name": "tokenId",
          "type": "uint256"
        }
      ],
      "name": "ownerOf",
      "outputs": [
        {
          "internalType": "address",
          "name": "",
          "type": "address"
        }
      ],
      "stateMutability": "view",
      "type": "function"
    },
    {
      "inputs": [
        {
          "internalType": "address",
          "name": "from",
          "type": "address"
        },
        {
          "internalType": "address",
          "name": "to",
          "type": "address"
        },
        {
          "internalType": "uint256",
          "name": "tokenId",
          "type": "uint256"
        }
      ],
      "name": "safeTransferFrom",
      "outputs": [],
      "stateMutability": "nonpayable",
      "type": "function"
    },
    {
      "inputs": [
        {
          "internalType": "address",
          "name": "from",
          "type": "address"
        },
        {
          "internalType": "address",
          "name": "to",
          "type": "address"
        },
        {
          "internalType": "uint256",
          "name": "tokenId",
          "type": "uint256"
        },
        {
          "internalType": "bytes",
          "name": "data",
          "type": "bytes"
        }
      ],
      "name": "safeTransferFrom",
      "outputs": [],
      "stateMutability": "nonpayable",
      "type": "function"
    },
    {
      "inputs": [
        {
          "internalType": "address",
          "name": "operator",
          "type": "address"
        },
        {
          "internalType": "bool",
          "name": "approved",
          "type": "bool"
        }
      ],
      "name": "setApprovalForAll",
      "outputs": [],
      "stateMutability": "nonpayable",
      "type": "function"
    },
    {
      "inputs": [
        {
          "internalType": "uint256",
          "name": "",
          "type": "uint256"
        }
      ],
      "name": "songs",
      "outputs": [
        {
          "internalType": "string",
          "name": "ipfsHash",
          "type": "string"
        },
        {
          "internalType": "string",
          "name": "title",
          "type": "string"
        },
        {
          "internalType": "address",
          "name": "uploader",
          "type": "address"
        }
      ],
      "stateMutability": "view",
      "type": "function"
    },
    {
      "inputs": [
        {
          "internalType": "bytes4",
          "name": "interfaceId",
          "type": "bytes4"
        }
      ],
      "name": "supportsInterface",
      "outputs": [
        {
          "internalType": "bool",
          "name": "",
          "type": "bool"
        }
      ],
      "stateMutability": "view",
      "type": "function"
    },
    {
      "inputs": [],
      "name": "symbol",
      "outputs": [
        {
          "internalType": "string",
          "name": "",
          "type": "string"
        }
      ],
      "stateMutability": "view",
      "type": "function"
    },
    {
      "inputs": [
        {
          "internalType": "uint256",
          "name": "tokenId",
          "type": "uint256"
        }
      ],
      "name": "tokenURI",
      "outputs": [
        {
          "internalType": "string",
          "name": "",
          "type": "string"
        }
      ],
      "stateMutability": "view",
      "type": "function"
    },
    {
      "inputs": [
        {
          "internalType": "address",
          "name": "from",
          "type": "address"
        },
        {
          "internalType": "address",
          "name": "to",
          "type": "address"
        },
        {
          "internalType": "uint256",
          "name": "tokenId",
          "type": "uint256"
        }
      ],
      "name": "transferFrom",
      "outputs": [],
      "stateMutability": "nonpayable",
      "type": "function"
    },
    {
      "inputs": [
        {
          "internalType": "string",
          "name": "_ipfsHash",
          "type": "string"
        },
        {
          "internalType": "string",
          "name": "_title",
          "type": "string"
        }
      ],
      "name": "uploadAndTokenizeSong",
      "outputs": [],
      "stateMutability": "nonpayable",
      "type": "function"
    }
  ],
  "bytecode": "0x60806040523480156200001157600080fd5b506040518060400160405280600981526020017f536f6e67546f6b656e00000000000000000000000000000000000000000000008152506040518060400160405280600481526020017f534f4e470000000000000000000000000000000000000000000000000000000081525081600090816200008f919062000324565b508060019081620000a1919062000324565b5050506200040b565b600081519050919050565b7f4e487b7100000000000000000000000000000000000000000000000000000000600052604160045260246000fd5b7f4e487b7100000000000000000000000000000000000000000000000000000000600052602260045260246000fd5b600060028204905060018216806200012c57607f821691505b602082108103620001425762000141620000e4565b5b50919050565b60008190508160005260206000209050919050565b60006020601f8301049050919050565b600082821b905092915050565b600060088302620001ac7fffffffffffffffffffffffffffffffffffffffffffffffffffffffffffffffff826200016d565b620001b886836200016d565b95508019841693508086168417925050509392505050565b6000819050919050565b6000819050919050565b600062000205620001ff620001f984620001d0565b620001da565b620001d0565b9050919050565b6000819050919050565b6200022183620001e4565b6200023962000230826200020c565b8484546200017a565b825550505050565b600090565b6200025062000241565b6200025d81848462000216565b505050565b5b8181101562000285576200027960008262000246565b60018101905062000263565b5050565b601f821115620002d4576200029e8162000148565b620002a9846200015d565b81016020851015620002b9578190505b620002d1620002c8856200015d565b83018262000262565b50505b505050565b600082821c905092915050565b6000620002f960001984600802620002d9565b1980831691505092915050565b6000620003148383620002e6565b9150826002028217905092915050565b6200032f82620000aa565b67ffffffffffffffff8111156200034b576200034a620000b5565b5b62000357825462000113565b6200036482828562000289565b600060209050601f8311600181146200039c576000841562000387578287015190505b62000393858262000306565b86555062000403565b601f198416620003ac8662000148565b60005b82811015620003d657848901518255600182019150602085019450602081019050620003af565b86831015620003f65784890151620003f2601f891682620002e6565b8355505b6001600288020188555050505b505050505050565b612816806200041b6000396000f3fe608060405234801561001057600080fd5b506004361061010b5760003560e01c806342acaa66116100a257806395d89b411161007157806395d89b41146102e0578063a22cb465146102fe578063b88d4fde1461031a578063c87b56dd14610336578063e985e9c5146103665761010b565b806342acaa66146102305780635763440b146102625780636352211e1461028057806370a08231146102b05761010b565b806323b872dd116100de57806323b872dd146101aa578063304cff30146101c65780633fef58cd146101f857806342842e0e146102145761010b565b806301ffc9a71461011057806306fdde0314610140578063081812fc1461015e578063095ea7b31461018e575b600080fd5b61012a60048036038101906101259190611b62565b610396565b6040516101379190611baa565b60405180910390f35b610148610478565b6040516101559190611c55565b60405180910390f35b61017860048036038101906101739190611cad565b61050a565b6040516101859190611d1b565b60405180910390f35b6101a860048036038101906101a39190611d62565b610526565b005b6101c460048036038101906101bf9190611da2565b61053c565b005b6101e060048036038101906101db9190611cad565b61063e565b6040516101ef93929190611df5565b60405180910390f35b610212600480360381019061020d9190611f6f565b610798565b005b61022e60048036038101906102299190611da2565b6108ad565b005b61024a60048036038101906102459190611cad565b6108cd565b60405161025993929190611df5565b60405180910390f35b61026a610ad3565b6040516102779190611ff6565b60405180910390f35b61029a60048036038101906102959190611cad565b610add565b6040516102a79190611d1b565b60405180910390f35b6102ca60048036038101906102c59190612011565b610aef565b6040516102d79190611ff6565b60405180910390f35b6102e8610ba9565b6040516102f59190611c55565b60405180910390f35b6103186004803603810190610313919061206a565b610c3b565b005b610334600480360381019061032f919061214b565b610c51565b005b610350600480360381019061034b9190611cad565b610c6e565b60405161035d9190611c55565b60405180910390f35b610380600480360381019061037b91906121ce565b610cd7565b60405161038d9190611baa565b60405180910390f35b60007f80ac58cd000000000000000000000000000000000000000000000000000000007bffffffffffffffffffffffffffffffffffffffffffffffffffffffff1916827bffffffffffffffffffffffffffffffffffffffffffffffffffffffff1916148061046157507f5b5e139f000000000000000000000000000000000000000000000000000000007bffffffffffffffffffffffffffffffffffffffffffffffffffffffff1916827bffffffffffffffffffffffffffffffffffffffffffffffffffffffff1916145b80610471575061047082610d6b565b5b9050919050565b6060600080546104879061223d565b80601f01602080910402602001604051908101604052809291908181526020018280546104b39061223d565b80156105005780601f106104d557610100808354040283529160200191610500565b820191906000526020600020905b8154815290600101906020018083116104e357829003601f168201915b5050505050905090565b600061051582610dd5565b5061051f82610e5d565b9050919050565b6105388282610533610e9a565b610ea2565b5050565b600073ffffffffffffffffffffffffffffffffffffffff168273ffffffffffffffffffffffffffffffffffffffff16036105ae5760006040517f64a0ae920000000000000000000000000000000000000000000000000000000081526004016105a59190611d1b565b60405180910390fd5b60006105c283836105bd610e9a565b610eb4565b90508373ffffffffffffffffffffffffffffffffffffffff168173ffffffffffffffffffffffffffffffffffffffff1614610638578382826040517f64283d7b00000000000000000000000000000000000000000000000000000000815260040161062f9392919061226e565b60405180910390fd5b50505050565b60066020528060005260406000206000915090508060000180546106619061223d565b80601f016020809104026020016040519081016040528092919081815260200182805461068d9061223d565b80156106da5780601f106106af576101008083540402835291602001916106da565b820191906000526020600020905b8154815290600101906020018083116106bd57829003601f168201915b5050505050908060010180546106ef9061223d565b80601f016020809104026020016040519081016040528092919081815260200182805461071b9061223d565b80156107685780601f1061073d57610100808354040283529160200191610768565b820191906000526020600020905b81548152906001019060200180831161074b57829003601f168201915b5050505050908060020160009054906101000a900473ffffffffffffffffffffffffffffffffffffffff16905083565b6107a06110ce565b6000600754905060405180606001604052808481526020018381526020013373ffffffffffffffffffffffffffffffffffffffff168152506006600083815260200190815260200160002060008201518160000190816108009190612451565b5060208201518160010190816108169190612451565b5060408201518160020160006101000a81548173ffffffffffffffffffffffffffffffffffffffff021916908373ffffffffffffffffffffffffffffffffffffffff16021790555090505061086b33826110ea565b7f6358e9014ecd394f03e10ee3ad6ec81b473ce9673e2f198bb6b1b2e06c2367d3818484336040516108a09493929190612523565b60405180910390a1505050565b6108c883838360405180602001604052806000815250610c51565b505050565b60608060006108db846111e3565b61091a576040517f08c379a0000000000000000000000000000000000000000000000000000000008152600401610911906125c2565b60405180910390fd5b60006006600086815260200190815260200160002060405180606001604052908160008201805461094a9061223d565b80601f01602080910402602001604051908101604052809291908181526020018280546109769061223d565b80156109c35780601f10610998576101008083540402835291602001916109c3565b820191906000526020600020905b8154815290600101906020018083116109a657829003601f168201915b505050505081526020016001820180546109dc9061223d565b80601f0160208091040260200160405190810160405280929190818152602001828054610a089061223d565b8015610a555780601f10610a2a57610100808354040283529160200191610a55565b820191906000526020600020905b815481529060010190602001808311610a3857829003601f168201915b505050505081526020016002820160009054906101000a900473ffffffffffffffffffffffffffffffffffffffff1673ffffffffffffffffffffffffffffffffffffffff1673ffffffffffffffffffffffffffffffffffffffff16815250509050806000015181602001518260400151935093509350509193909250565b6000600754905090565b6000610ae882610dd5565b9050919050565b60008073ffffffffffffffffffffffffffffffffffffffff168273ffffffffffffffffffffffffffffffffffffffff1603610b625760006040517f89c62b64000000000000000000000000000000000000000000000000000000008152600401610b599190611d1b565b60405180910390fd5b600360008373ffffffffffffffffffffffffffffffffffffffff1673ffffffffffffffffffffffffffffffffffffffff168152602001908152602001600020549050919050565b606060018054610bb89061223d565b80601f0160208091040260200160405190810160405280929190818152602001828054610be49061223d565b8015610c315780601f10610c0657610100808354040283529160200191610c31565b820191906000526020600020905b815481529060010190602001808311610c1457829003601f168201915b5050505050905090565b610c4d610c46610e9a565b8383611211565b5050565b610c5c84848461053c565b610c6884848484611380565b50505050565b6060610c7982610dd5565b506000610c84611537565b90506000815111610ca45760405180602001604052806000815250610ccf565b80610cae8461154e565b604051602001610cbf92919061261e565b6040516020818303038152906040525b915050919050565b6000600560008473ffffffffffffffffffffffffffffffffffffffff1673ffffffffffffffffffffffffffffffffffffffff16815260200190815260200160002060008373ffffffffffffffffffffffffffffffffffffffff1673ffffffffffffffffffffffffffffffffffffffff16815260200190815260200160002060009054906101000a900460ff16905092915050565b60007f01ffc9a7000000000000000000000000000000000000000000000000000000007bffffffffffffffffffffffffffffffffffffffffffffffffffffffff1916827bffffffffffffffffffffffffffffffffffffffffffffffffffffffff1916149050919050565b600080610de18361161c565b9050600073ffffffffffffffffffffffffffffffffffffffff168173ffffffffffffffffffffffffffffffffffffffff1603610e5457826040517f7e273289000000000000000000000000000000000000000000000000000000008152600401610e4b9190611ff6565b60405180910390fd5b80915050919050565b60006004600083815260200190815260200160002060009054906101000a900473ffffffffffffffffffffffffffffffffffffffff169050919050565b600033905090565b610eaf8383836001611659565b505050565b600080610ec08461161c565b9050600073ffffffffffffffffffffffffffffffffffffffff168373ffffffffffffffffffffffffffffffffffffffff1614610f0257610f0181848661181e565b5b600073ffffffffffffffffffffffffffffffffffffffff168173ffffffffffffffffffffffffffffffffffffffff1614610f9357610f44600085600080611659565b6001600360008373ffffffffffffffffffffffffffffffffffffffff1673ffffffffffffffffffffffffffffffffffffffff168152602001908152602001600020600082825403925050819055505b600073ffffffffffffffffffffffffffffffffffffffff168573ffffffffffffffffffffffffffffffffffffffff1614611016576001600360008773ffffffffffffffffffffffffffffffffffffffff1673ffffffffffffffffffffffffffffffffffffffff168152602001908152602001600020600082825401925050819055505b846002600086815260200190815260200160002060006101000a81548173ffffffffffffffffffffffffffffffffffffffff021916908373ffffffffffffffffffffffffffffffffffffffff160217905550838573ffffffffffffffffffffffffffffffffffffffff168273ffffffffffffffffffffffffffffffffffffffff167fddf252ad1be2c89b69c2b068fc378daa952ba7f163c4a11628f55a4df523b3ef60405160405180910390a4809150509392505050565b6001600760008282546110e19190612671565b92505081905550565b600073ffffffffffffffffffffffffffffffffffffffff168273ffffffffffffffffffffffffffffffffffffffff160361115c5760006040517f64a0ae920000000000000000000000000000000000000000000000000000000081526004016111539190611d1b565b60405180910390fd5b600061116a83836000610eb4565b9050600073ffffffffffffffffffffffffffffffffffffffff168173ffffffffffffffffffffffffffffffffffffffff16146111de5760006040517f73c6ac6e0000000000000000000000000000000000000000000000000000000081526004016111d59190611d1b565b60405180910390fd5b505050565b6000806006600084815260200190815260200160002060000180546112079061223d565b9050119050919050565b600073ffffffffffffffffffffffffffffffffffffffff168273ffffffffffffffffffffffffffffffffffffffff160361128257816040517f5b08ba180000000000000000000000000000000000000000000000000000000081526004016112799190611d1b565b60405180910390fd5b80600560008573ffffffffffffffffffffffffffffffffffffffff1673ffffffffffffffffffffffffffffffffffffffff16815260200190815260200160002060008473ffffffffffffffffffffffffffffffffffffffff1673ffffffffffffffffffffffffffffffffffffffff16815260200190815260200160002060006101000a81548160ff0219169083151502179055508173ffffffffffffffffffffffffffffffffffffffff168373ffffffffffffffffffffffffffffffffffffffff167f17307eab39ab6107e8899845ad3d59bd9653f200f220920489ca2b5937696c31836040516113739190611baa565b60405180910390a3505050565b60008373ffffffffffffffffffffffffffffffffffffffff163b1115611531578273ffffffffffffffffffffffffffffffffffffffff1663150b7a026113c4610e9a565b8685856040518563ffffffff1660e01b81526004016113e694939291906126fa565b6020604051808303816000875af192505050801561142257506040513d601f19601f8201168201806040525081019061141f919061275b565b60015b6114a6573d8060008114611452576040519150601f19603f3d011682016040523d82523d6000602084013e611457565b606091505b50600081510361149e57836040517f64a0ae920000000000000000000000000000000000000000000000000000000081526004016114959190611d1b565b60405180910390fd5b805181602001fd5b63150b7a0260e01b7bffffffffffffffffffffffffffffffffffffffffffffffffffffffff1916817bffffffffffffffffffffffffffffffffffffffffffffffffffffffff19161461152f57836040517f64a0ae920000000000000000000000000000000000000000000000000000000081526004016115269190611d1b565b60405180910390fd5b505b50505050565b606060405180602001604052806000815250905090565b60606000600161155d846118e2565b01905060008167ffffffffffffffff81111561157c5761157b611e44565b5b6040519080825280601f01601f1916602001820160405280156115ae5781602001600182028036833780820191505090505b509050600082602001820190505b600115611611578080600190039150507f3031323334353637383961626364656600000000000000000000000000000000600a86061a8153600a858161160557611604612788565b5b049450600085036115bc575b819350505050919050565b60006002600083815260200190815260200160002060009054906101000a900473ffffffffffffffffffffffffffffffffffffffff169050919050565b80806116925750600073ffffffffffffffffffffffffffffffffffffffff168273ffffffffffffffffffffffffffffffffffffffff1614155b156117c65760006116a284610dd5565b9050600073ffffffffffffffffffffffffffffffffffffffff168373ffffffffffffffffffffffffffffffffffffffff161415801561170d57508273ffffffffffffffffffffffffffffffffffffffff168173ffffffffffffffffffffffffffffffffffffffff1614155b8015611720575061171e8184610cd7565b155b1561176257826040517fa9fbf51f0000000000000000000000000000000000000000000000000000000081526004016117599190611d1b565b60405180910390fd5b81156117c457838573ffffffffffffffffffffffffffffffffffffffff168273ffffffffffffffffffffffffffffffffffffffff167f8c5be1e5ebec7d5bd14f71427d1e84f3dd0314c0f7b2291e5b200ac8c7c3b92560405160405180910390a45b505b836004600085815260200190815260200160002060006101000a81548173ffffffffffffffffffffffffffffffffffffffff021916908373ffffffffffffffffffffffffffffffffffffffff16021790555050505050565b611829838383611a35565b6118dd57600073ffffffffffffffffffffffffffffffffffffffff168373ffffffffffffffffffffffffffffffffffffffff160361189e57806040517f7e2732890000000000000000000000000000000000000000000000000000000081526004016118959190611ff6565b60405180910390fd5b81816040517f177e802f0000000000000000000000000000000000000000000000000000000081526004016118d49291906127b7565b60405180910390fd5b505050565b600080600090507a184f03e93ff9f4daa797ed6e38ed64bf6a1f0100000000000000008310611940577a184f03e93ff9f4daa797ed6e38ed64bf6a1f010000000000000000838161193657611935612788565b5b0492506040810190505b6d04ee2d6d415b85acef8100000000831061197d576d04ee2d6d415b85acef8100000000838161197357611972612788565b5b0492506020810190505b662386f26fc1000083106119ac57662386f26fc1000083816119a2576119a1612788565b5b0492506010810190505b6305f5e10083106119d5576305f5e10083816119cb576119ca612788565b5b0492506008810190505b61271083106119fa5761271083816119f0576119ef612788565b5b0492506004810190505b60648310611a1d5760648381611a1357611a12612788565b5b0492506002810190505b600a8310611a2c576001810190505b80915050919050565b60008073ffffffffffffffffffffffffffffffffffffffff168373ffffffffffffffffffffffffffffffffffffffff1614158015611aed57508273ffffffffffffffffffffffffffffffffffffffff168473ffffffffffffffffffffffffffffffffffffffff161480611aae5750611aad8484610cd7565b5b80611aec57508273ffffffffffffffffffffffffffffffffffffffff16611ad483610e5d565b73ffffffffffffffffffffffffffffffffffffffff16145b5b90509392505050565b6000604051905090565b600080fd5b600080fd5b60007fffffffff0000000000000000000000000000000000000000000000000000000082169050919050565b611b3f81611b0a565b8114611b4a57600080fd5b50565b600081359050611b5c81611b36565b92915050565b600060208284031215611b7857611b77611b00565b5b6000611b8684828501611b4d565b91505092915050565b60008115159050919050565b611ba481611b8f565b82525050565b6000602082019050611bbf6000830184611b9b565b92915050565b600081519050919050565b600082825260208201905092915050565b60005b83811015611bff578082015181840152602081019050611be4565b60008484015250505050565b6000601f19601f8301169050919050565b6000611c2782611bc5565b611c318185611bd0565b9350611c41818560208601611be1565b611c4a81611c0b565b840191505092915050565b60006020820190508181036000830152611c6f8184611c1c565b905092915050565b6000819050919050565b611c8a81611c77565b8114611c9557600080fd5b50565b600081359050611ca781611c81565b92915050565b600060208284031215611cc357611cc2611b00565b5b6000611cd184828501611c98565b91505092915050565b600073ffffffffffffffffffffffffffffffffffffffff82169050919050565b6000611d0582611cda565b9050919050565b611d1581611cfa565b82525050565b6000602082019050611d306000830184611d0c565b92915050565b611d3f81611cfa565b8114611d4a57600080fd5b50565b600081359050611d5c81611d36565b92915050565b60008060408385031215611d7957611d78611b00565b5b6000611d8785828601611d4d565b9250506020611d9885828601611c98565b9150509250929050565b600080600060608486031215611dbb57611dba611b00565b5b6000611dc986828701611d4d565b9350506020611dda86828701611d4d565b9250506040611deb86828701611c98565b9150509250925092565b60006060820190508181036000830152611e0f8186611c1c565b90508181036020830152611e238185611c1c565b9050611e326040830184611d0c565b949350505050565b600080fd5b600080fd5b7f4e487b7100000000000000000000000000000000000000000000000000000000600052604160045260246000fd5b611e7c82611c0b565b810181811067ffffffffffffffff82111715611e9b57611e9a611e44565b5b80604052505050565b6000611eae611af6565b9050611eba8282611e73565b919050565b600067ffffffffffffffff821115611eda57611ed9611e44565b5b611ee382611c0b565b9050602081019050919050565b82818337600083830152505050565b6000611f12611f0d84611ebf565b611ea4565b905082815260208101848484011115611f2e57611f2d611e3f565b5b611f39848285611ef0565b509392505050565b600082601f830112611f5657611f55611e3a565b5b8135611f66848260208601611eff565b91505092915050565b60008060408385031215611f8657611f85611b00565b5b600083013567ffffffffffffffff811115611fa457611fa3611b05565b5b611fb085828601611f41565b925050602083013567ffffffffffffffff811115611fd157611fd0611b05565b5b611fdd85828601611f41565b9150509250929050565b611ff081611c77565b82525050565b600060208201905061200b6000830184611fe7565b92915050565b60006020828403121561202757612026611b00565b5b600061203584828501611d4d565b91505092915050565b61204781611b8f565b811461205257600080fd5b50565b6000813590506120648161203e565b92915050565b6000806040838503121561208157612080611b00565b5b600061208f85828601611d4d565b92505060206120a085828601612055565b9150509250929050565b600067ffffffffffffffff8211156120c5576120c4611e44565b5b6120ce82611c0b565b9050602081019050919050565b60006120ee6120e9846120aa565b611ea4565b90508281526020810184848401111561210a57612109611e3f565b5b612115848285611ef0565b509392505050565b600082601f83011261213257612131611e3a565b5b81356121428482602086016120db565b91505092915050565b6000806000806080858703121561216557612164611b00565b5b600061217387828801611d4d565b945050602061218487828801611d4d565b935050604061219587828801611c98565b925050606085013567ffffffffffffffff8111156121b6576121b5611b05565b5b6121c28782880161211d565b91505092959194509250565b600080604083850312156121e5576121e4611b00565b5b60006121f385828601611d4d565b925050602061220485828601611d4d565b9150509250929050565b7f4e487b7100000000000000000000000000000000000000000000000000000000600052602260045260246000fd5b6000600282049050600182168061225557607f821691505b6020821081036122685761226761220e565b5b50919050565b60006060820190506122836000830186611d0c565b6122906020830185611fe7565b61229d6040830184611d0c565b949350505050565b60008190508160005260206000209050919050565b60006020601f8301049050919050565b600082821b905092915050565b6000600883026123077fffffffffffffffffffffffffffffffffffffffffffffffffffffffffffffffff826122ca565b61231186836122ca565b95508019841693508086168417925050509392505050565b6000819050919050565b600061234e61234961234484611c77565b612329565b611c77565b9050919050565b6000819050919050565b61236883612333565b61237c61237482612355565b8484546122d7565b825550505050565b600090565b612391612384565b61239c81848461235f565b505050565b5b818110156123c0576123b5600082612389565b6001810190506123a2565b5050565b601f821115612405576123d6816122a5565b6123df846122ba565b810160208510156123ee578190505b6124026123fa856122ba565b8301826123a1565b50505b505050565b600082821c905092915050565b60006124286000198460080261240a565b1980831691505092915050565b60006124418383612417565b9150826002028217905092915050565b61245a82611bc5565b67ffffffffffffffff81111561247357612472611e44565b5b61247d825461223d565b6124888282856123c4565b600060209050601f8311600181146124bb57600084156124a9578287015190505b6124b38582612435565b86555061251b565b601f1984166124c9866122a5565b60005b828110156124f1578489015182556001820191506020850194506020810190506124cc565b8683101561250e578489015161250a601f891682612417565b8355505b6001600288020188555050505b505050505050565b60006080820190506125386000830187611fe7565b818103602083015261254a8186611c1c565b9050818103604083015261255e8185611c1c565b905061256d6060830184611d0c565b95945050505050565b7f536f6e6720646f6573206e6f7420657869737400000000000000000000000000600082015250565b60006125ac601383611bd0565b91506125b782612576565b602082019050919050565b600060208201905081810360008301526125db8161259f565b9050919050565b600081905092915050565b60006125f882611bc5565b61260281856125e2565b9350612612818560208601611be1565b80840191505092915050565b600061262a82856125ed565b915061263682846125ed565b91508190509392505050565b7f4e487b7100000000000000000000000000000000000000000000000000000000600052601160045260246000fd5b600061267c82611c77565b915061268783611c77565b925082820190508082111561269f5761269e612642565b5b92915050565b600081519050919050565b600082825260208201905092915050565b60006126cc826126a5565b6126d681856126b0565b93506126e6818560208601611be1565b6126ef81611c0b565b840191505092915050565b600060808201905061270f6000830187611d0c565b61271c6020830186611d0c565b6127296040830185611fe7565b818103606083015261273b81846126c1565b905095945050505050565b60008151905061275581611b36565b92915050565b60006020828403121561277157612770611b00565b5b600061277f84828501612746565b91505092915050565b7f4e487b7100000000000000000000000000000000000000000000000000000000600052601260045260246000fd5b60006040820190506127cc6000830185611d0c565b6127d96020830184611fe7565b939250505056fea26469706673582212208d3c4ea9886627f33bea8cb377a181ab014fce7118c6401a1e2295e849cd2dc664736f6c63430008180033",
  "linkReferences": {},
  "deployedLinkReferences": {}
}